{
  "contractName": "Timelock",
  "abi": [
    {
      "inputs": [
        {
          "internalType": "address payable",
          "name": "_owner",
          "type": "address"
        }
      ],
      "stateMutability": "nonpayable",
      "type": "constructor"
    },
    {
      "inputs": [],
      "name": "owner",
      "outputs": [
        {
          "internalType": "address payable",
          "name": "",
          "type": "address"
        }
      ],
      "stateMutability": "view",
      "type": "function"
    },
    {
      "stateMutability": "payable",
      "type": "receive"
    },
    {
      "inputs": [
        {
          "internalType": "address",
          "name": "token",
          "type": "address"
        },
        {
          "internalType": "uint256",
          "name": "amount",
          "type": "uint256"
        }
      ],
      "name": "deposit",
      "outputs": [],
      "stateMutability": "nonpayable",
      "type": "function"
    },
    {
      "inputs": [
        {
          "internalType": "address",
          "name": "token",
          "type": "address"
        },
        {
          "internalType": "uint256",
          "name": "amount",
          "type": "uint256"
        },
        {
          "internalType": "address",
          "name": "to",
          "type": "address"
        }
      ],
      "name": "withdraw",
      "outputs": [],
      "stateMutability": "nonpayable",
      "type": "function"
    }
  ],
  "bytecode": "0x60a060405234801561001057600080fd5b5060405161074b38038061074b83398181016040528101906100329190610084565b8073ffffffffffffffffffffffffffffffffffffffff1660808173ffffffffffffffffffffffffffffffffffffffff1660601b81525050506100f6565b60008151905061007e816100df565b92915050565b60006020828403121561009657600080fd5b60006100a48482850161006f565b91505092915050565b60006100b8826100bf565b9050919050565b600073ffffffffffffffffffffffffffffffffffffffff82169050919050565b6100e8816100ad565b81146100f357600080fd5b50565b60805160601c610629610122600039600081816101570152818161021a015261031a01526106296000f3fe6080604052600436106100385760003560e01c806347e7ef241461004457806369328dec1461006d5780638da5cb5b146100965761003f565b3661003f57005b600080fd5b34801561005057600080fd5b5061006b6004803603810190610066919061037b565b6100c1565b005b34801561007957600080fd5b50610094600480360381019061008f91906103b7565b610155565b005b3480156100a257600080fd5b506100ab610318565b6040516100b8919061047f565b60405180910390f35b8173ffffffffffffffffffffffffffffffffffffffff166323b872dd3330846040518463ffffffff1660e01b81526004016100fe9392919061049a565b602060405180830381600087803b15801561011857600080fd5b505af115801561012c573d6000803e3d6000fd5b505050506040513d601f19601f820116820180604052508101906101509190610406565b505050565b7f000000000000000000000000000000000000000000000000000000000000000073ffffffffffffffffffffffffffffffffffffffff163373ffffffffffffffffffffffffffffffffffffffff16146101e3576040517f08c379a00000000000000000000000000000000000000000000000000000000081526004016101da906104fa565b60405180910390fd5b600073ffffffffffffffffffffffffffffffffffffffff168373ffffffffffffffffffffffffffffffffffffffff161415610284577f000000000000000000000000000000000000000000000000000000000000000073ffffffffffffffffffffffffffffffffffffffff166108fc839081150290604051600060405180830381858888f1935050505015801561027e573d6000803e3d6000fd5b50610313565b8273ffffffffffffffffffffffffffffffffffffffff1663a9059cbb82846040518363ffffffff1660e01b81526004016102bf9291906104d1565b602060405180830381600087803b1580156102d957600080fd5b505af11580156102ed573d6000803e3d6000fd5b505050506040513d601f19601f820116820180604052508101906103119190610406565b505b505050565b7f000000000000000000000000000000000000000000000000000000000000000081565b60008135905061034b816105ae565b92915050565b600081519050610360816105c5565b92915050565b600081359050610375816105dc565b92915050565b6000806040838503121561038e57600080fd5b600061039c8582860161033c565b92505060206103ad85828601610366565b9150509250929050565b6000806000606084860312156103cc57600080fd5b60006103da8682870161033c565b93505060206103eb86828701610366565b92505060406103fc8682870161033c565b9150509250925092565b60006020828403121561041857600080fd5b600061042684828501610351565b91505092915050565b6104388161053d565b82525050565b6104478161052b565b82525050565b600061045a600a8361051a565b915061046582610585565b602082019050919050565b6104798161057b565b82525050565b6000602082019050610494600083018461042f565b92915050565b60006060820190506104af600083018661043e565b6104bc602083018561043e565b6104c96040830184610470565b949350505050565b60006040820190506104e6600083018561043e565b6104f36020830184610470565b9392505050565b600060208201905081810360008301526105138161044d565b9050919050565b600082825260208201905092915050565b60006105368261055b565b9050919050565b60006105488261055b565b9050919050565b60008115159050919050565b600073ffffffffffffffffffffffffffffffffffffffff82169050919050565b6000819050919050565b7f6f6e6c79206f776e657200000000000000000000000000000000000000000000600082015250565b6105b78161052b565b81146105c257600080fd5b50565b6105ce8161054f565b81146105d957600080fd5b50565b6105e58161057b565b81146105f057600080fd5b5056fea26469706673582212206ba89ce2fb1647c94074eaa319661ece889fdce4f7183ff8b34abbba4c011aed64736f6c63430008040033",
  "immutableReferences": {
    "732": [
      {
        "length": 32,
        "start": 343
      },
      {
        "length": 32,
        "start": 538
      },
      {
        "length": 32,
        "start": 794
      }
    ]
  },
  "source": "pragma solidity ^0.8.4;\n\nimport '@openzeppelin/contracts/token/ERC20/IERC20.sol';\n\ncontract Timelock {\n  //uint public constant duration = 30 days;\n  //uint public immutable end;\n  address payable public immutable owner;\n\n  constructor(address payable _owner) {\n    //end = block.timestamp + duration;\n    owner = _owner; \n  }\n\n  function deposit(address token, uint amount) external {\n    //IERC20(token).approve(address(this), amount);\n    IERC20(token).transferFrom(msg.sender, address(this), amount);\n  }\n\n  receive() external payable {}\n\n  function withdraw(address token, uint amount, address to) external {\n    require(msg.sender == owner, 'only owner');\n    //require(block.timestamp >= end, 'too early');\n    if(token == address(0)) { \n      owner.transfer(amount);\n    } else {\n      IERC20(token).transfer(to, amount);\n    }\n  }\n}\n",
  "sourcePath": "D:\\Work\\Blockchain\\354-timelock-contract\\contracts\\Timelock.sol",
  "compiler": {
    "name": "solc",
    "version": "0.8.4+commit.c7e474f2.Emscripten.clang"
  },
  "schemaVersion": "3.4.3",
  "updatedAt": "2021-11-23T08:36:28.133Z",
  "devdoc": {
    "kind": "dev",
    "methods": {},
    "version": 1
  },
  "userdoc": {
    "kind": "user",
    "methods": {},
    "version": 1
  }
}